{
  "contractName": "Jaecontract",
  "abi": [
    {
      "constant": false,
      "inputs": [
        {
          "internalType": "uint256",
          "name": "content",
          "type": "uint256"
        }
      ],
      "name": "setindex",
      "outputs": [],
      "payable": false,
      "stateMutability": "nonpayable",
      "type": "function"
    },
    {
      "constant": true,
      "inputs": [
        {
          "internalType": "uint256",
          "name": "location",
          "type": "uint256"
        }
      ],
      "name": "getcontent",
      "outputs": [
        {
          "internalType": "uint256",
          "name": "",
          "type": "uint256"
        }
      ],
      "payable": false,
      "stateMutability": "view",
      "type": "function"
    }
  ],
  "bytecode": "0x608060405234801561001057600080fd5b50610124806100206000396000f3fe6080604052348015600f57600080fd5b506004361060325760003560e01c80639e706e32146037578063b86607b1146062575b600080fd5b606060048036036020811015604b57600080fd5b810190808035906020019092919050505060a1565b005b608b60048036036020811015607657600080fd5b810190808035906020019092919050505060d0565b6040518082815260200191505060405180910390f35b600081908060018154018082558091505090600182039060005260206000200160009091929091909150555050565b600080828154811060dd57fe5b9060005260206000200154905091905056fea265627a7a72315820560b8ac978e8ebf6a6ac250c1bb0a12003de4d05d57140eb1b6b7b6b7994f3ec64736f6c63430005100032",
  "source": "pragma solidity >=0.4.21 <0.7.0;\n\ncontract Jaecontract {\nuint[] index;\n\nfunction setindex(uint content) public{\nindex.push(content);\n}\n\nfunction getcontent(uint location) public view returns(uint){\n\nreturn index[location];\n\n}\n\n\n\n\n\n}\n",
  "sourcePath": "/home/jae/Desktop/test_array/contracts/Jaecontract.sol",
  "compiler": {
    "name": "solc",
    "version": "0.5.16+commit.9c3226ce.Emscripten.clang"
  },
  "schemaVersion": "3.2.0",
  "updatedAt": "2020-06-07T01:26:31.135Z",
  "networkType": "ethereum",
  "devdoc": {
    "methods": {}
  },
  "userdoc": {
    "methods": {}
  }
}